:020000040800F2
:10000000000002207D330008CD330008CD33000806
:10001000CD330008CD330008CD33000800000000C8
:10002000000000000000000000000000CD330008C8
:10003000CD33000800000000CD330008F90E0008A1
:10004000CD330008CD330008CD330008CD33000890
:1000500000000000CD330008CD330008CD33000888
:10006000CD330008CD330008CD330008CD33000870
:10007000CD330008CD330008CD330008CD33000860
:10008000CD330008CD330008CD330008CD33000850
:10009000CD330008CD330008CD330008CD33000840
:1000A000CD330008CD330008CD330008CD33000830
:1000B000CD330008CD330008CD330008CD33000820
:1000C000CD330008CD330008CD330008CD33000810
:1000D000CD330008A5130008CD330008CD33000848
:1000E000CD330008CD330008CD330008CD330008F0
:1000F000CD330008CD330008CD330008CD330008E0
:10010000CD330008CD330008CD330008CD330008CF
:10011000CD330008CD330008CD330008CD330008BF
:10012000CD330008CD330008CD330008CD330008AF
:10013000CD330008CD330008CD330008CD3300089F
:10014000CD330008CD330008CD330008CD3300088F
:10015000CD330008CD330008CD330008CD3300087F
:10016000CD330008CD330008CD330008CD3300086F
:10017000CD330008CD330008CD330008CD3300085F
:08018000CD330008CD33000867
:1001900010B5054C237833B9044B13B10448AFF3C1
:1001A00000800123237010BDD80A00200000000049
:1001B0000889000808B5034B1BB103490348AFF396
:1001C000008008BD00000000DC0A0020088900084B
:1001D0002DE9F04F8BB00AAF1C4B1B68184602F09C
:1001E000AFF882468B461A4BDB69184602F0A8F836
:1001F00004460D46174BB3F900301E46164B1B68DC
:10020000184602F09DF880468946114B1B6A184635
:1002100002F096F802460B461049B1F90010089119
:10022000CDE90623CDE904890296CDE90045524681
:100230005B460B490B4803F08DF90A4800F0BCFF00
:1002400000BF0437BD46BDE8F08F00BF00040020AA
:10025000580C0020180C0020040400201A0C002068
:1002600020890008F40A002080B582B000AF00F0B9
:100270008BF800F019FE00F0EFFE4FF47A71542075
:1002800001F062FC01F0E4FD01F0B6FA01F090F833
:1002900000F0CAFE0246304B1B68D31AB3F52F7F1D
:1002A000F6D300F0C1FE03462B4A136001F03CFD7B
:1002B0002A4B19682A4BDA692A4B2B4801F05DFE5C
:1002C00078602A4B1968264B1A6A264B284801F099
:1002D00054FE38602749786802F036FB0346002B4D
:1002E00001D0254B0EE02549786802F04BFB034610
:1002F000002B02D040F2E73304E0786802F04CFBB8
:1003000003461BB21E4A13801A49386802F01CFBD0
:100310000346002B01D0184B0EE01849386802F054
:1003200031FB0346002B02D040F2E73304E038688B
:1003300002F032FB03461BB2124A1380104BB3F992
:100340000030104AB2F900201146184601F08CFB2B
:10035000FFF73EFF9CE700BF140C002000040020C4
:10036000580C002000002F44BC0B00200404002087
:10037000E80B002000C079C419FCFFFF00C07944DD
:10038000180C00201A0C002080B485B000AF554B2B
:10039000FB60554BBB60554B7B60FB681B6843F4AF
:1003A0008032FB681A6000BFFB681B685B0C03F0BF
:1003B0000103002BF8D04E4B3B603B681B6843F0B9
:1003C00005023B681A603B681B6843F480723B6817
:1003D0001A603B681B6843F400723B681A603B6814
:1003E0001B6843F480623B681A60BB681B6823F09B
:1003F0003F02BB681A60BB681B6843F00802BB6819
:100400001A60BB681B6823F4FF4323F04003BA68FB
:100410001360BB681B6843F4A842BB681A60BB68E2
:100420001B6823F44032BB681A60BB681A68BB685B
:100430001A60BB681B6823F07062BB681A60BB68F7
:100440001B6843F0E062BB681A60BB681B6843F43A
:100450008002BB681A60FB681B6843F08072FB680F
:100460001A6000BFFB681B685B0E03F00103002BE2
:10047000F8D07B681B6823F0F0027B681A607B6809
:100480001B6823F4E0527B681A607B681B6843F4A6
:10049000A0527B681A607B681B6823F460427B680B
:1004A0001A607B681B6843F400427B681A607B68B3
:1004B0001B6823F003027B681A607B681B6843F0AB
:1004C00002027B681A6000BF7B681B689B0803F010
:1004D0000303022BF8D100BF00BF1437BD4680BC18
:1004E000704700BF0038024004380240083802401C
:1004F000003C024080B485B000AF0346FB71084B5E
:10050000FB60FB681B68FA79012101FA02F21A43C9
:10051000FB681A6000BF1437BD4680BC704700BF3F
:100520003038024080B485B000AF0346FB71084B01
:10053000FB60FB681B68FA79012101FA02F21A4399
:10054000FB681A6000BF1437BD4680BC704700BF0F
:100550003438024080B485B000AF0346FB71084BCD
:10056000FB60FB681B68FA79012101FA02F21A4369
:10057000FB681A6000BF1437BD4680BC704700BFDF
:100580004038024080B485B000AF0346FB71084B91
:10059000FB60FB681B68FA79012101FA02F21A4339
:1005A000FB681A6000BF1437BD4680BC704700BFAF
:1005B0004438024080B483B000AF78600B46FB70D3
:1005C000FB78012B62D17B68644A934206D1644B6D
:1005D0001B6B634A43F001031363B9E07B68614A14
:1005E000934206D15E4B1B6B5D4A43F002031363DB
:1005F000AEE07B685C4A934206D1594B1B6B584A6C
:1006000043F004031363A3E07B68584A934206D186
:10061000534B1B6B524A43F00803136398E07B680B
:10062000534A934206D14E4B1B6B4D4A43F0100385
:1006300013638DE07B684F4A934206D1484B1B6B96
:10064000474A43F02003136382E07B684A4A93429F
:1006500006D1434B1B6B424A43F04003136377E0E0
:100660007B68464A934206D13D4B1B6B3C4A43F0A4
:10067000800313636CE07B68414A934268D1384B36
:100680001B6B374A43F48073136361E07B68334A22
:10069000934206D1324B1B6B314A23F001031363A3
:1006A00056E07B682F4A934206D12D4B1B6B2C4A98
:1006B00023F0020313634BE07B682B4A934206D17D
:1006C000274B1B6B264A23F00403136340E07B682F
:1006D000264A934206D1224B1B6B214A23F0080382
:1006E000136335E07B68224A934206D11C4B1B6B97
:1006F0001B4A23F0100313632AE07B681D4A9342D0
:1007000006D1174B1B6B164A23F0200313631FE01F
:100710007B68194A934206D1114B1B6B104A23F098
:100720004003136314E07B68144A934206D10C4BD8
:100730001B6B0B4A23F08003136309E07B68104AAC
:10074000934205D1064B1B6B054A23F48073136358
:1007500000BF0C37BD4680BC704700BF00000240A0
:10076000003802400004024000080240000C024031
:10077000001002400014024000180240001C024019
:100780000020024080B485B000AF78600B46FB705B
:100790007B681A69FB7822FA03F3DBB203F00103EA
:1007A000FB73FB7B18461437BD4680BC704780B492
:1007B00085B000AF78607B681B69FB81FB891846B8
:1007C0001437BD4680BC704780B483B000AF7860FA
:1007D0000B467B8013467B707B78002B09D07B68AF
:1007E0005B697A88012101FA02F21A437B685A6137
:1007F00009E07B685B697A88012101FA02F2D24341
:100800001A407B685A6100BF0C37BD4680BC7047F8
:1008100080B483B000AF78600B46FB70FA787B68D9
:100820005A6100BF0C37BD4680BC704780B483B0AE
:1008300000AF78600B46FB707B685B69FA7801213A
:1008400001FA02F25A407B685A6100BF0C37BD467C
:1008500080BC704780B483B000AF78607B684E4A3C
:1008600093420CD14D4B1B694C4A43F00103136179
:100870004A4B1B69494A23F00103136186E07B68F8
:10088000474A93420CD1454B1B69444A43F002034B
:100890001361424B1B69414A23F00203136175E067
:1008A0007B68404A93420CD13C4B1B693B4A43F066
:1008B00004031361394B1B69384A23F004031361A5
:1008C00064E07B68384A93420CD1344B1B69334A4D
:1008D00043F008031361314B1B69304A23F00803CE
:1008E000136153E07B68314A93420CD12B4B1B6957
:1008F0002A4A43F010031361284B1B69274A23F04F
:100900001003136142E07B68294A93420CD1234BC8
:100910001B69224A43F020031361204B1B691F4AC5
:1009200023F02003136131E07B68224A93420CD10B
:100930001A4B1B69194A43F040031361174B1B699B
:10094000164A23F04003136120E07B681A4A934261
:100950000CD1124B1B69114A43F0800313610F4BFA
:100960001B690E4A23F0800313610FE07B68134A72
:1009700093420BD1094B1B69084A43F480731361FE
:10098000064B1B69054A23F48073136100BF0C37C3
:10099000BD4680BC704700BF0000024000380240E6
:1009A0000004024000080240000C02400010024017
:1009B0000014024000180240001C024000200240C7
:1009C00080B586B000AF78607B681B68012118464F
:1009D000FFF7F0FD7B685B79032B20D87B685B79A0
:1009E0001A467B681B795B0002FA03F33B617B6864
:1009F0001B681A687B681B795B00032101FA03F30B
:100A0000DB4319467B681B680A401A607B681B68D9
:100A100019687B681B683A690A431A60B7E07B680B
:100A20005B79042B17D1474BDB687A681279114642
:100A300001228A401146434A0B43D360414B9B68D5
:100A40007A681279114601228A40D24311463D4A02
:100A50000B40936035E07B685B79052B17D1394BF0
:100A60009B687A681279114601228A401146354AFC
:100A70000B439360334BDB687A681279114601228D
:100A80008A40D24311462F4A0B40D36019E07B685D
:100A90005B79062B15D12B4BDB687A6812791146EE
:100AA00001228A401146274A0B43D360254B9B689D
:100AB0007A681279114601228A401146214A0B4375
:100AC00093607B681B799B08FB757B681B7903F03F
:100AD0000303BB757B681B681B4A93423AD07B6853
:100AE0001B681A4A93422BD07B681B68184A9342B2
:100AF00024D07B681B68154A93421DD07B681B6815
:100B0000114A934216D07B681B68104A93420FD05B
:100B10007B681B680C4A934208D07B681B680B4AB1
:100B2000934201D1072316E0002314E0062312E0CC
:100B3000052310E004230EE003230CE002230AE067
:100B4000012308E0003C0140000002400004024094
:100B50000008024000237B755D4B5B6C5C4A43F4EC
:100B6000804353647A7DBB7D9B0002FA03F1594AAE
:100B7000FB7D023342F82310574B1B687A681279C9
:100B8000114601228A401146534A0B431360002349
:100B90003B617B689B791A467B681B795B0002FA94
:100BA00003F33B617B681B689A687B681B795B0079
:100BB000032101FA03F3DB4319467B681B680A40F3
:100BC0009A607B681B6899687B681B683A690A436E
:100BD0009A6000233B617B68DB791A467B681B794E
:100BE0005B0002FA03F33B617B681B68DA687B6891
:100BF0001B795B00032101FA03F3DB4319467B6891
:100C00001B680A40DA607B681B68D9687B681B68D0
:100C10003A690A43DA6000233B617B681B7A1A4613
:100C20007B681B7902FA03F33B617B681B685A6897
:100C30007B681B79194601238B40DB4319467B688F
:100C40001B680A405A607B681B6859687B681B6890
:100C50003A690A435A6000233B617B685B79022B47
:100C600032D17B681B79DB08DBB2FB607B681B79C8
:100C700003F00703BB607B681B68FA68083253F80F
:100C80002220BB689B000F2101FA03F3DB431946C6
:100C90007B681B681140FA68083243F822107B68B1
:100CA0001B68FA68083253F822207B685B7A194681
:100CB000BB689B0001FA03F319467B681B6811436C
:100CC000FA68083243F8221000BF1837BD4680BDCD
:100CD0000038024000380140003C014080B483B03D
:100CE00000AF03460A46FB711346BB71BB79012B6B
:100CF00033D1FB791F2B0AD8344B1B68FA790121B9
:100D000001FA02F21146314A0B43136059E0FB79B4
:100D10001F2B0FD9FB793F2B0CD82D4B1B68FA7971
:100D200002F01F02012101FA02F21146284A0B4388
:100D3000136046E0FB793F2B43D9FB795F2B40D80A
:100D4000244B1B68FA7902F03F02012101FA02F2FA
:100D50001146204A0B43136033E0FB791F2B0AD85E
:100D60001D4B1B68FA79012101FA02F211461A4A59
:100D70000B43136025E0FB791F2B0FD9FB793F2B29
:100D80000CD8164B1B68FA7902F01F02012101FAF8
:100D900002F21146114A0B43136012E0FB79052B56
:100DA0000FD9FB795F2B0CD80D4B1B68FA7902F039
:100DB0003F02012101FA02F21146094A0B43136076
:100DC000FFE700BF0C37BD4680BC704700E100E084
:100DD00004E100E008E100E080E100E084E100E0FF
:100DE00088E100E080B485B000AF03460A46FB719D
:100DF0001346BB71FB799B08FB73FB7903F003037C
:100E0000BB73BB7BDB00DBB204337B73FB7B9B00E0
:100E100003F1604303F564431A687B7B0F2101FAF9
:100E200003F3DB431946FB7B9B0003F1604303F5AF
:100E300064430A401A60FB7B9B0003F1604303F5A7
:100E400064431A68B9797B7B01FA03F31946FB7B8B
:100E50009B0003F1604303F564430A431A6000BF3B
:100E60001437BD4680BC704780B483B000AF0346E2
:100E7000FB710C4B5B69FA79012101FA02F2134014
:100E8000002B09D0074B5B69FA79012101FA02F2C4
:100E90001146044A0B43536100BF0C37BD4680BC6A
:100EA000704700BF003C014080B485B000AF0D4BDF
:100EB000FB600D4BBB600D4B7B600D4BA8221A6095
:100EC000FB6800221A60BB680A4A1A607B6800222D
:100ED0001A60FB6807221A6000BF1437BD4680BC49
:100EE000704700BF10E000E014E000E018E000E010
:100EF000240C00203F90020080B400AF044B1B681C
:100F00000133034A136000BFBD4680BC704700BF79
:100F1000200C002080B489B000AF7860304BFB61BA
:100F2000304BBB61304B7B617B68002B53D02F4B28
:100F30001A687B6802FB03F33B61FB6900221A60BD
:100F40001BE0BB692A4A1A607B6900221A60FB69B0
:100F500005221A60FB691B68FB60FB6803F0010354
:100F6000002B04D0FB6803F48033002BF2D0FB6924
:100F700000221A607B6900221A603B69B3F5801F6A
:100F8000DFD23B69002B1CD03B695A1EBB691A603B
:100F90007B6900221A60FB6905221A60FB691B68E5
:100FA000FB60FB6803F00103002B04D0FB6803F433
:100FB0008033002BF2D0FB6900221A607B6900228B
:100FC0001A60BB690B4A1A607B6900221A60FB69D0
:100FD00007221A6000E000BF2437BD4680BC70477E
:100FE00010E000E014E000E018E000E0240C002035
:100FF000FFFF0F003F90020080B485B000AF786023
:10100000084B1B68FB6000BF064B1A68FB68D31ACD
:101010007A689A42F8D800BF00BF1437BD4680BC3A
:10102000704700BF200C002080B400AF024B1B684B
:101030001846BD4680BC7047200C002080B400AF2D
:10104000044B1B684FF47A7202FB03F31846BD464B
:1010500080BC7047200C002080B487B000AF2B4BC1
:101060001B6B2A4A43F002031363294B7B61294B14
:101070003B617B691B6823F470427B691A607B6962
:101080001B6843F420427B691A603B691B6823F0AC
:101090007F423B691A603B691B6843F0EE423B6943
:1010A0001A601A4B5B6C194A43F0100353641A4BD5
:1010B000FB601A4BBB60FB6842F22E221A60BB68D1
:1010C0001B6823F48062BB681A60BB681B6823F44A
:1010D0008052BB681A60BB681B6843F4005343F03E
:1010E0000C03BA681360BB681B6843F02002BB683E
:1010F0001A600B4B7B607B681B6843F020027B68A7
:101100001A6000BF1C37BD4680BC704700380240E3
:101110000004024020040240081001400C1001406D
:1011200004E100E080B483B000AF094B7B60094B61
:1011300043F001027B681A60074B7B60074B43F06A
:1011400001027B681A6000BF0C37BD4680BC704747
:10115000D40000203112000850010020551300086F
:1011600080B485B000AF0346FB71114BFB60114B9F
:10117000BB6000BFFB681B68DB0903F00103002BA9
:10118000F8D0FA79BB681A6000BFFB681B689B093E
:1011900003F00103002BF8D0FB681B6823F040022A
:1011A000FB681A6000BF1437BD4680BC704700BFA3
:1011B000001001400410014080B584B000AF786099
:1011C000786801F00FFC0346BB600023FB6009E078
:1011D000FB687A6813441B781846FFF7C1FFFB6869
:1011E0000133FB60FA68BB689A42F1DB00BF00BFC5
:1011F0001037BD4680BD80B485B000AF0A4BFB60A0
:101200000A4BBB6000BFFB681B685B0903F001036E
:10121000002BF8D0BB681B68FB71FB7918461437AC
:10122000BD4680BC704700BF001001400410014063
:1012300080B582B000AF174B7B607B681868164B97
:101240001B685A1C14490A60C1B2144AD15414498B
:10125000124802F0ECF90346002B08D00E4B002296
:101260001A60142200210D4802F0D9F90EE00D4950
:101270000A4802F0DCF90346002B07D0064B002297
:101280001A6014220021054802F0C9F900BF08378E
:10129000BD4680BD041001403C0C0020280C0020FD
:1012A0005C8900086489000880B487B000AF214BD6
:1012B0001B6B204A43F4800313631F4B7B611F4B5E
:1012C0003B611F4BFB601F4BBB603B6907221A60F1
:1012D000FB681D4A1A601D4ABB681A607B691B685F
:1012E00043F000627B691A607B691B6843F00072FF
:1012F0007B691A607B691B6843F010027B691A6086
:101300007B691B6843F480727B691A607B691B6888
:1013100043F001027B691A600D4B7B607B681B68A0
:1013200043F010027B681A6000BF1C37BD4680BCCA
:10133000704700BF00380240886402408C6402405D
:10134000906402409464024004100140280C002084
:1013500008E100E080B582B000AF0E4B7B607B6897
:101360001B6843F400627B681A600B490B4802F06B
:101370005EF90346002B03D10949084802F057F9EA
:1013800007220021054802F04AF900BF0837BD4690
:1013900080BD00BF0C6402406C890008280C00204E
:1013A0006489000880B500AFFFF742FF00BF80BD31
:1013B00080B584B004AF104B0393104B02930E4BD7
:1013C00001930E4B00930E4B0E4A4FF07C510E488A
:1013D00000F089FD084B0393084B0293064B0193E1
:1013E000064B0093064B074A4FF07C51074800F02C
:1013F0007AFD00BFBD4680BD00C0794400C079C4FD
:1014000052491D39EE7CFF3EBC0B0020E80B00204A
:1014100080B588B000AF7860396007F10C0307F140
:1014200010023968786800F0FFF83969264BDA69EC
:10143000264B274800F0A1FDF861F968224B1A6A93
:10144000224B244800F099FDB8612349F86901F066
:101450007BFA0346002B01D0204B0EE02049F869AF
:1014600001F090FA0346002B02D040F2E73304E08B
:10147000F86901F091FA03461BB2FB821649B8697C
:1014800001F062FA0346002B01D0144B0EE0144920
:10149000B86901F077FA0346002B02D040F2E73337
:1014A00004E0B86901F078FA03461BB2BB82B7F9D1
:1014B0001420B7F916301146184600F0D5FA00BFCF
:1014C0002037BD4680BD00BF580C00203333333F6A
:1014D000BC0B0020E80B002000C079C419FCFFFF02
:1014E00000C0794490B587B000AF78603960796802
:1014F000386800F083FF03464FF07C51184601F036
:1015000085F803467B617968386800F075FF03460B
:101510003F49184601F02EF903463B613D4B9C685C
:101520004FF07C51386901F071F8034619462046A6
:1015300000F064FF0346FB60364B1C68F86806F059
:10154000E5FB03467969184601F060F80346194641
:10155000204600F053FF03461A462E4B1A602D4BCF
:101560005C68F86806F00AFC03467969184601F0E1
:101570004DF803461946204600F040FF03461A4640
:10158000244B5A60234B9B683969184600F036FF9C
:1015900003461A461F4B9A6009E01E4B9B681E4982
:1015A000184600F029FF03461A461A4B9A60194B59
:1015B0009B681A49184601F0E5F90346002BECD167
:1015C00009E0144B9B681449184600F017FF0346C6
:1015D0001A46104B9A600F4B9B681149184601F050
:1015E000B3F90346002BECD10E49786901F0C2F83B
:1015F00003461A46074BDA600A49386901F0BAF81F
:1016000003461A46034B1A6100BF1C37BD4690BD06
:101610007B142E3E400C0020DB0FC940DB0F4940FD
:10162000DB0F49C03333333F90B587B000AFF8606C
:10163000B9607A603B604649B86800F0E7FF03464E
:101640001946F86800F0D8FE03461A467B681A600F
:101650003F49B86800F0DAFF0346F968184600F021
:10166000CDFE03461A463B681A607B681B684FF044
:101670000001184601F068F90346002B04D07B688E
:101680001B6883F0004401E07B681C683B681B68B2
:101690004FF00001184601F057F90346002B04D023
:1016A0003B681B6883F0004301E03B681B681946F8
:1016B000204601F067F90346002B11D07B681B68B8
:1016C0004FF00001184601F03FF90346002B04D00B
:1016D0007B681B6883F0004313E07B681B6810E0A5
:1016E0003B681B684FF00001184601F02DF90346D6
:1016F000002B04D03B681B6883F0004301E03B688B
:101700001B687B611349786901F03CF90346002BA3
:1017100000D119E079690F4801F02CF803463B61CC
:101720007B681B683969184600F070FF03461A464B
:101730007B681A603B681B683969184600F066FFD1
:1017400003461A463B681A6000BF1C37BD4690BD71
:101750007B14AE3D3333B33E90B587B000AFF86035
:10176000B9607A603B60204B9C682049B86800F003
:1017700043FE03461E49184600F048FF03461D4934
:10178000184600F0F7FF03461946204600F036FEE3
:1017900003467B61144B1C68786906F0B7FA034670
:1017A000F968184600F032FF03461946204600F05B
:1017B00025FE03461A467B681A600B4B5C68786905
:1017C00006F0DCFA0346F968184600F01FFF0346EE
:1017D0001946204600F012FE03461A463B681A607E
:1017E00000BF1C37BD4690BD400C00200000B44235
:1017F000DB0F494000003443B0B487B000AF3B1D5D
:1018000000221A605A609A60DA601A61054B1D4620
:101810003C1D0FCC0FC523682B6000BF1C37BD4695
:10182000B0BC7047400C002080B586B000AF0346C6
:101830000A46FB711346BB80634B1B6B624A43F045
:1018400008031363614BFB6002237B740323BB74A7
:101850000023FB7400233B7502237B750C233B7430
:1018600007F10C031846FFF7ABF80D233B7407F1A3
:101870000C031846FFF7A4F80E233B7407F10C0382
:101880001846FFF79DF80F233B7407F10C03184629
:10189000FFF796F84C4B1B6C4B4A43F00403136460
:1018A000FB795A1E4A4B9A62BB885A1E484BDA6231
:1018B000474B00225A62464B00225A63444B002297
:1018C0009A63434B0022DA63414B00221A64404B77
:1018D0009B693F4A23F0030393613D4B9B693C4A5C
:1018E00023F0700393613A4B9B69394A43F06003DC
:1018F0009361374B9B69364A23F440739361344BB1
:101900009B69334A23F4E0439361314B9B69304A2E
:1019100043F4C04393612E4BDB692D4A23F003034C
:10192000D3612B4BDB692A4A23F07003D361284B28
:10193000DB69274A43F06003D361254BDB69244A06
:1019400023F44073D361224BDB69214A23F4E04343
:10195000D3611F4BDB691E4A43F4C043D3611C4B68
:101960001B681B4A43F080031360194B1B6A184A1B
:1019700043F001031362164B1B6A154A43F0100330
:101980001362134B1B6A124A43F480731362104BA9
:101990001B6A0F4A43F4805313620D4B1B6A0C4AB7
:1019A00043F0010313620A4B5B69094A43F00203E7
:1019B0005361074B1B68064A43F00103136000BFE5
:1019C0001837BD4680BD00BF00380240000C024001
:1019D0000008004080B400AF044B00225A63034B60
:1019E00000229A6300BFBD4680BC704700080040DB
:1019F00080B400AF044B0022DA63034B00221A6468
:101A000000BFBD4680BC70470008004080B500AFF5
:101A1000054B00221A70054B00221A70FFF7DAFFFF
:101A2000FFF7E6FF00BF80BD540C0020550C0020DE
:101A300080B483B000AF0346FB80B7F90630B3F53E
:101A40007A7F02DB40F2E733FB80B7F9063013F50B
:101A50007A7F02DC4FF61943FB80B7F9063018464F
:101A60000C37BD4680BC704780B582B000AF0346DE
:101A70000A46FB801346BB80B7F906301846FFF7CD
:101A8000D7FF0346FB80B7F904301846FFF7D0FFB5
:101A90000346BB80B7F90630002B0ADD274B012235
:101AA0001A70274AB7F906305363254B00229A6310
:101AB00018E0B7F90630002B0BDA204BFF221A7022
:101AC0001F4B00225A63B7F906305A421C4B9A63E7
:101AD00008E01A4B00221A70194B00225A63184B67
:101AE00000229A63B7F90430002B0ADD154B01225E
:101AF0001A70134AB7F90430D363114B00221A64E9
:101B000018E0B7F90430002B0BDA0E4BFF221A70E5
:101B10000B4B0022DA63B7F904305A42084B1A64BF
:101B200008E0084B00221A70054B0022DA63044BD0
:101B300000221A6400BF0837BD4680BD540C002047
:101B400000080040550C002080B582B000AF03466D
:101B50000A46FB711346BB80BA88FB7911461846CA
:101B6000FFF762FEFFF752FF00BF0837BD4680BD9A
:101B700080B584B000AF324B7B6002237B720123BF
:101B8000FB7202237B7307233B723B1D1846FEF753
:101B900017FF2C4B1B6C2B4A43F0020313642A4B98
:101BA0004FF0FF32DA62284B00229A62264B002265
:101BB0005A62254B9B69244A23F440739361224B5C
:101BC0009B69214A43F4807393611F4B9B691E4AB2
:101BD00023F4E04393611C4B9B691B4A43F4E043AD
:101BE0009361194B1B6A184A23F010031362164BBA
:101BF0001B6A154A43F010031362134B9B68124A89
:101C000023F070039360104B9B680F4A43F060030E
:101C100093600D4B9B680C4A23F0070393600A4BBB
:101C20009B68094A43F007039360074B1B68064A09
:101C300043F00103136000BF1037BD4680BD00BFF5
:101C400000080240003802400004004080B584B023
:101C500000AF324B7B6002237B720123FB720223B5
:101C60007B7301233B723B1D1846FEF7A9FE2C4BEC
:101C70001B6C2B4A43F0080313642A4B4FF0FF32CE
:101C8000DA62284B00229A62264B00225A62254BC8
:101C90009B69244A23F440739361224B9B69214A38
:101CA00043F4807393611F4B9B691E4A23F4E04306
:101CB00093611C4B9B691B4A43F4E0439361194BAE
:101CC0001B6A184A23F010031362164B1B6A154A4D
:101CD00043F010031362134B9B68124A23F0700306
:101CE0009360104B9B680F4A43F0600393600D4B69
:101CF0009B680C4A23F0070393600A4B9B68094AD0
:101D000043F007039360074B1B68064A43F0010347
:101D1000136000BF1037BD4680BD00BF0000024009
:101D200000380240000C004080B586B000AF414B47
:101D30005B6A7B61404B5B6A3B613E4B00225A62AF
:101D40003D4B00225A623D4B1B785BB2002B02DAFE
:101D50007B695B427B613A4B1B785BB2002B02DAFA
:101D60003B695B423B61374A7B691360354A3B699B
:101D70005360344B9A687B691344324A9360314B09
:101D8000DA683B6913442F4AD360786900F0EAFBB4
:101D900003462D4A1146184600F038FC0346FB6006
:101DA000386900F0DFFB0346274A1146184600F069
:101DB0002DFC0346BB60234B1B69224A5269114626
:101DC000184600F01BFB03464FF07C51184600F00C
:101DD0001DFC03461A461B4B9A611C49F86800F02B
:101DE000C9FC03467B601949B86800F0C3FC034690
:101DF0003B60144A7B68D361124A3B681362114B03
:101E0000DB69104A126A1146184600F0F7FA0346D9
:101E10004FF07C51184600F0F9FB03461A46094B77
:101E20005A62B968F868FFF75DFB00BF1837BD4616
:101E300080BD00BF00040040000C0040540C002096
:101E4000550C0020580C00209548273C3333333F75
:101E500080B500AFFFF78CFEFFF7F8FE00F002F848
:101E600000BF80BDB0B58AB000AF0D4B00225A62F2
:101E70000C4B00225A623B4628220021184601F0F2
:101E8000CEFB094B1D463C460FCC0FC50FCC0FC5F2
:101E900094E8030085E8030000BF2837BD46B0BDC5
:101EA00000040040000C0040580C002080B584B0B5
:101EB00000AFF860B9607A607968F86800F062FD98
:101EC0000346002B01D07B6809E0B968F86800F090
:101ED0003BFD0346002B01D0BB6800E0FB681846C1
:101EE0001037BD4680BD80B485B000AFF860B960E2
:101EF0007A603B60FB68BA681A60FB687A685A606F
:101F0000FB683A689A60FB684FF00002DA60FB6891
:101F10004FF000021A61FB684FF000025A61FB6843
:101F20004FF000029A61FB68BA69DA61FB68FA69EE
:101F30001A62FB683A6A5A62FB687A6A9A6200BF60
:101F40001437BD4680BC704780B483B000AF786062
:101F50007B684FF00002DA607B684FF000021A6184
:101F60007B684FF000025A617B684FF000029A6173
:101F700000BF0C37BD4680BC704790B587B000AF3E
:101F8000F860B9607A603B60FB68002B02D14FF0CB
:101F900000036CE04FF00001386800F0DFFC0346FE
:101FA000002B02D0FB689B6961E07968B86800F09B
:101FB00023FA03461A46FB68DA60FB685C69FB6833
:101FC000DB683968184600F021FB034619462046B5
:101FD00000F014FA03461A46FB685A61FB68586918
:101FE000FB68596AFB689B6A1A46FFF75FFF024667
:101FF000FB685A61FB68DA68FB681B691946104682
:1020000000F0FAF903463968184600F0B3FB0346BE
:102010007B61FB681A68FB68DB681946104600F0B4
:10202000F5FA03461C46FB685A68FB685B6919466B
:10203000104600F0EBFA03461946204600F0DEF9A0
:1020400003461C46FB689B687969184600F0DEFA77
:1020500003461946204600F0D1F903461A46FB68AC
:102060009A61FB68DA68FB681A61FB689B6918462D
:102070001C37BD4690BD000081F0004102E000BF6A
:1020800083F0004330B54FEA41044FEA430594EA38
:10209000050F08BF90EA020F1FBF54EA000C55EA73
:1020A000020C7FEA645C7FEA655C00F0E2804FEA44
:1020B0005454D4EB5555B8BF6D420CDD2C4480EA26
:1020C000020281EA030382EA000083EA010180EA56
:1020D000020281EA0303362D88BF30BD11F0004FA4
:1020E0004FEA01314FF4801C4CEA113102D04042DA
:1020F00061EB410113F0004F4FEA03334CEA133315
:1021000002D0524263EB430394EA050F00F0A7802C
:10211000A4F10104D5F1200E0DDB02FA0EFC22FA27
:1021200005F2801841F1000103FA0EF2801843FA1B
:1021300005F359410EE0A5F120050EF1200E012A0C
:1021400003FA0EFC28BF4CF0020C43FA05F3C0184A
:1021500051EBE37101F0004507D54FF0000EDCF1C3
:10216000000C7EEB00006EEB0101B1F5801F1BD36C
:10217000B1F5001F0CD349085FEA30004FEA3C0C70
:1021800004F101044FEA445212F5800F80F09A8066
:10219000BCF1004F08BF5FEA500C50F1000041EB6A
:1021A000045141EA050130BD5FEA4C0C404141EB6E
:1021B0000101013C28BFB1F5801FE9D291F0000F69
:1021C00004BF01460020B1FA81F308BF2033A3F118
:1021D0000B03B3F120020CDA0C3208DD02F1140C0F
:1021E000C2F10C0201FA0CF021FA02F10CE002F14A
:1021F0001402D8BFC2F1200C01FA02F120FA0CFC43
:10220000DCBF41EA0C019040E41AA2BF01EB04518B
:10221000294330BD6FEA04041F3C1CDA0C340EDC89
:1022200004F11404C4F1200220FA04F001FA02F3CC
:1022300040EA030021FA04F345EA030130BDC4F18A
:102240000C04C4F1200220FA02F001FA04F340EA7F
:102250000300294630BD21FA04F0294630BD94F030
:10226000000F83F4801306BF81F480110134013D17
:102270004EE77FEA645C18BF7FEA655C29D094EA88
:10228000050F08BF90EA020F05D054EA000C04BF06
:102290001946104630BD91EA030F1EBF00210020F1
:1022A00030BD5FEA545C05D14000494128BF41F090
:1022B000004130BD14F580043CBF01F5801130BDF4
:1022C00001F0004545F0FE4141F470014FF000007F
:1022D00030BD7FEA645C1ABF194610467FEA655C30
:1022E0001CBF0B46024650EA013406BF52EA0335D2
:1022F00091EA030F41F4002130BD00BF90F0000FC0
:1023000004BF0021704730B54FF4806404F13204FB
:102310004FF000054FF0000150E700BF90F0000FB4
:1023200004BF0021704730B54FF4806404F13204DB
:1023300010F0004548BF40424FF000013EE700BFAB
:1023400042004FEAE2014FEA31014FEA02701FBF3B
:1023500012F07F4393F07F4F81F06051704732F06D
:102360007F4208BF704793F07F4F04BF41F40021C4
:10237000704730B54FF4607401F0004521F0004122
:102380001CE700BF50EA010208BF704730B54FF0AC
:1023900000050AE050EA010208BF704730B511F0AD
:1023A000004502D5404261EB41014FF4806404F1E5
:1023B00032045FEA915C3FF4D8AE4FF003025FEA6B
:1023C000DC0C18BF03325FEADC0C18BF033202EBEF
:1023D000DC02C2F1200300FA03FC20FA02F001FA49
:1023E00003FE40EA0E0021FA02F11444BDE600BFEC
:1023F00080F0004002E000BF81F0004142001FBFBA
:102400005FEA410392EA030F7FEA226C7FEA236CC2
:102410006AD04FEA1262D2EB1363C1BFD2184140B7
:1024200048404140B8BF5B42192B88BF704710F04D
:10243000004F40F4000020F07F4018BF404211F0F0
:10244000004F41F4000121F07F4118BF494292EA58
:10245000030F3FD0A2F1010241FA03FC10EB0C0084
:10246000C3F1200301FA03F100F0004302D5494211
:1024700060EB4000B0F5000F13D3B0F1807F06D3BE
:1024800040084FEA310102F10102FE2A51D2B1F1B6
:10249000004F40EBC25008BF20F0010040EA0300AB
:1024A0007047490040EB0000013A28BFB0F5000F2B
:1024B000EDD2B0FA80FCACF1080CB2EB0C0200FAE1
:1024C0000CF0AABF00EBC25052421843BCBFD04030
:1024D0001843704792F0000F81F4000106BF80F4AA
:1024E00000000132013BB5E74FEA41037FEA226C6D
:1024F00018BF7FEA236C21D092EA030F04D092F038
:10250000000F08BF0846704790EA010F1CBF00206B
:10251000704712F07F4F04D1400028BF40F00040C8
:10252000704712F100723CBF00F50000704700F0E8
:10253000004343F0FE4040F4000070477FEA22620F
:1025400016BF08467FEA23630146420206BF5FEAE0
:10255000412390EA010F40F4800070474FF00003E0
:1025600004E000BF10F0004348BF40425FEA000CA7
:1025700008BF704743F0964301464FF000001CE04F
:1025800050EA010208BF70474FF000030AE000BFA5
:1025900050EA010208BF704711F0004302D54042E3
:1025A00061EB41015FEA010C02BF84460146002055
:1025B00043F0B64308BFA3F18053A3F50003BCFA70
:1025C0008CF2083AA3EBC25310DB01FA02FC63441D
:1025D00000FA02FCC2F12002BCF1004F20FA02F224
:1025E00043EB020008BF20F00100704702F1200217
:1025F00001FA02FCC2F1200250EA4C0021FA02F278
:1026000043EB020008BF20EADC7070474FF0FF0C7C
:102610001CEAD0521EBF1CEAD15392EA0C0F93EA77
:102620000C0F6FD01A4480EA010C400218BF5FEA19
:1026300041211ED04FF0006343EA501043EA51118C
:10264000A0FB01310CF00040B1F5000F3EBF490086
:1026500041EAD3715B0040EA010062F17F02FD2A8A
:102660001DD8B3F1004F40EBC25008BF20F001006D
:10267000704790F0000F0CF0004C08BF49024CEA84
:10268000502040EA51207F3AC2BFD2F1FF0340EA16
:10269000C250704740F400004FF00003013A5DDC87
:1026A00012F1190FDCBF00F000407047C2F10002C8
:1026B000410021FA02F1C2F1200200FA02FC5FEAB5
:1026C000310040F1000053EA4C0308BF20EADC70FF
:1026D000704792F0000F00F0004C02BF400010F471
:1026E000000F013AF9D040EA0C0093F0000F01F01E
:1026F000004C02BF490011F4000F013BF9D041EA40
:102700000C018FE70CEAD15392EA0C0F18BF93EA41
:102710000C0F0AD030F0004C18BF31F0004CD8D16B
:1027200080EA010000F00040704790F0000F17BFF2
:1027300090F0004F084691F0000F91F0004F14D038
:1027400092EA0C0F01D142020FD193EA0C0F03D190
:102750004B0218BF084608D180EA010000F0004093
:1027600040F0FE4040F40000704740F0FE4040F46E
:10277000400070474FF0FF0C1CEAD0521EBF1CEA0D
:10278000D15392EA0C0F93EA0C0F69D0A2EB03022B
:1027900080EA010C49024FEA402037D04FF08053C5
:1027A00043EA111143EA10130CF000408B4238BF8A
:1027B0005B0042F17D024FF4000C8B4224BF5B1A98
:1027C00040EA0C00B3EB510F24BFA3EB510340EAE6
:1027D0005C00B3EB910F24BFA3EB910340EA9C0094
:1027E000B3EBD10F24BFA3EBD10340EADC001B0104
:1027F00018BF5FEA1C1CE0D1FD2A3FF650AF8B42A8
:1028000040EBC25008BF20F0010070470CF0004CB4
:102810004CEA50207F32C2BFD2F1FF0340EAC250DF
:10282000704740F400004FF00003013A37E792F0A0
:10283000000F00F0004C02BF400010F4000F013AFE
:10284000F9D040EA0C0093F0000F01F0004C02BFF9
:10285000490011F4000F013BF9D041EA0C0195E762
:102860000CEAD15392EA0C0F08D142027FF47DAFFB
:1028700093EA0C0F7FF470AF084676E793EA0C0FEB
:1028800004D14B023FF44CAF08466EE730F0004CE9
:1028900018BF31F0004CCAD130F000427FF45CAF79
:1028A00031F000437FF43CAF5FE700BF4FF0FF3CE7
:1028B00006E000BF4FF0010C02E000BF4FF0010C3A
:1028C0004DF804CD4FEA40024FEA41037FEA226C03
:1028D00018BF7FEA236C11D001B052EA530C18BF25
:1028E00090EA010F58BFB2EB030088BFC81738BF8A
:1028F0006FEAE17018BF40F0010070477FEA226C78
:1029000002D15FEA402C05D17FEA236CE4D15FEA73
:10291000412CE1D05DF8040B704700BF84460846A7
:102920006146FFE70FB5FFF7C9FF002848BF10F168
:10293000000F0FBD4DF808EDFFF7F4FF0CBF0120AD
:1029400000205DF808FB00BF4DF808EDFFF7EAFF37
:1029500034BF012000205DF808FB00BF4DF808EDF2
:10296000FFF7E0FF94BF012000205DF808FB00BFE7
:102970004DF808EDFFF7D2FF94BF012000205DF86D
:1029800008FB00BF4DF808EDFFF7C8FF34BF01207A
:1029900000205DF808FB00BF4FEA4002B2F1FE4F95
:1029A0000FD34FF09E03B3EB12620DD94FEA002311
:1029B00043F0004310F0004F23FA02F018BF4042EA
:1029C00070474FF00000704712F1610F01D14202D1
:1029D00005D110F0004008BF6FF0004070474FF085
:1029E00000007047034613F8012B002AFBD1181A88
:1029F00001387047000000000000000000000000E7
:102A000001F0FF01102A2BDB10F0070F08D010F89F
:102A1000013B013A8B422DD010F0070F42B3F6D1A3
:102A2000F0B441EA012141EA014122F007047FF0BC
:102A300000070023F0E80256083C85EA010586EA13
:102A4000010685FA47F5A3FA87F586FA47F6A5FA4F
:102A500087F68EB9EED1F0BC01F0FF0102F007025B
:102A600032B110F8013B013A83EA010313B1F8D106
:102A70000020704701387047002D06BF35460338E7
:102A8000073815F0010F07D1013015F4807F02BF20
:102A9000013015F4C03F0130F0BC0138704700BF71
:102AA00070B54FF0FF0C4CF4E06C1CEA11541DBFE4
:102AB0001CEA135594EA0C0F95EA0C0F00F0DEF8AF
:102AC0002C4481EA030621EA4C5123EA4C5350EA94
:102AD000013518BF52EA033541F4801143F48013E5
:102AE00038D0A0FB02CE4FF00005E1FB02E506F076
:102AF0000042E0FB03E54FF00006E1FB03569CF0CB
:102B0000000F18BF4EF0010EA4F1FF04B6F5007FD0
:102B100064F5407404D25FEA4E0E6D4146EB060642
:102B200042EAC62141EA55514FEAC52040EA5E50CB
:102B30004FEACE2EB4F1FD0C88BFBCF5E06F1ED875
:102B4000BEF1004F08BF5FEA500E50F1000041EBAC
:102B5000045170BD06F0004646EA010140EA020059
:102B600081EA0301B4EB5C04C2BFD4EB0C0541EA7B
:102B7000045170BD41F480114FF0000E013C00F390
:102B8000AB8014F1360FDEBF002001F0004170BDB4
:102B9000C4F10004203C35DA0C341BDC04F11404CD
:102BA000C4F1200500FA05F320FA04F001FA05F259
:102BB00040EA020001F0004221F0004110EBD37026
:102BC00021FA04F642EB06015EEA430E08BF20EA52
:102BD000D37070BDC4F10C04C4F1200500FA04F3F5
:102BE00020FA05F001FA04F240EA020001F0004187
:102BF00010EBD37041F100015EEA430E08BF20EAFA
:102C0000D37070BDC4F1200500FA05F24EEA020E41
:102C100020FA04F301FA05F243EA020321FA04F070
:102C200001F0004121FA04F220EA020000EBD37027
:102C30005EEA430E08BF20EAD37070BD94F0000F27
:102C40000FD101F00046400041EB010111F4801F5B
:102C500008BF013CF7D041EA060195F0000F18BF0C
:102C6000704703F00046520043EB030313F4801F48
:102C700008BF013DF7D043EA0603704794EA0C0F02
:102C80000CEA135518BF95EA0C0F0CD050EA410618
:102C900018BF52EA4306D1D181EA030101F0004195
:102CA0004FF0000070BD50EA410606BF10461946BD
:102CB00052EA430619D094EA0C0F02D150EA0136C9
:102CC00013D195EA0C0F05D152EA03361CBF10460A
:102CD00019460AD181EA030101F0004141F0FE41A9
:102CE00041F470014FF0000070BD41F0FE4141F42D
:102CF000780170BD70B54FF0FF0C4CF4E06C1CEA2D
:102D000011541DBF1CEA135594EA0C0F95EA0C0FE1
:102D100000F0A7F8A4EB050481EA030E52EA03359C
:102D20004FEA013100F088804FEA03334FF08055BD
:102D300045EA131343EA12634FEA022245EA1115EA
:102D400045EA10654FEA00260EF000419D4208BF9B
:102D5000964244F1FD0404F5407402D25B084FEA48
:102D60003202B61A65EB03055B084FEA32024FF4F4
:102D700080104FF4002CB6EB020E75EB030E22BF51
:102D8000B61A754640EA0C005B084FEA3202B6EB11
:102D9000020E75EB030E22BFB61A754640EA5C00C0
:102DA0005B084FEA3202B6EB020E75EB030E22BF50
:102DB000B61A754640EA9C005B084FEA3202B6EB51
:102DC000020E75EB030E22BFB61A754640EADC0010
:102DD00055EA060E18D04FEA051545EA16754FEA72
:102DE00006164FEAC30343EA52734FEAC2025FEA90
:102DF0001C1CC0D111F4801F0BD141EA00014FF01F
:102E000000004FF0004CB6E711F4801F04BF0143EF
:102E10000020B4F1FD0C88BFBCF5E06F3FF6AFAE0B
:102E2000B5EB030C04BFB6EB020C5FEA500C50F19B
:102E3000000041EB045170BD0EF0004E4EEA11311E
:102E400014EB5C04C2BFD4EB0C0541EA045170BD25
:102E500041F480114FF0000E013C90E645EA060E69
:102E60008DE60CEA135594EA0C0F08BF95EA0C0F97
:102E70003FF43BAF94EA0C0F0AD150EA01347FF4DF
:102E800034AF95EA0C0F7FF425AF104619462CE7B6
:102E900095EA0C0F06D152EA03353FF4FDAE104619
:102EA000194622E750EA410618BF52EA43067FF46A
:102EB000C5AE50EA41047FF40DAF52EA43057FF4FA
:102EC000EBAE12E74FF0FF3C06E000BF4FF0010C05
:102ED00002E000BF4FF0010C4DF804CD4FEA410C69
:102EE0007FEA6C5C4FEA430C18BF7FEA6C5C1BD036
:102EF00001B050EA410C0CBF52EA430C91EA030FB7
:102F000002BF90EA020F0020704710F1000F91EA13
:102F1000030F58BF994208BF90422CBFD8176FEAE1
:102F2000E37040F0010070474FEA410C7FEA6C5CAF
:102F300002D150EA013C07D14FEA430C7FEA6C5CB6
:102F4000D6D152EA033CD3D05DF8040B704700BFE2
:102F50008446104662468C461946634600E000BF30
:102F600001B5FFF7B7FF002848BF10F1000F01BD02
:102F70004DF808EDFFF7F4FF0CBF012000205DF8CD
:102F800008FB00BF4DF808EDFFF7EAFF34BF012052
:102F900000205DF808FB00BF4DF808EDFFF7E0FFEB
:102FA00094BF012000205DF808FB00BF4DF808ED3C
:102FB000FFF7CEFF94BF012000205DF808FB00BFA3
:102FC0004DF808EDFFF7C4FF34BF012000205DF885
:102FD00008FB00BF4FEA410C7FEA6C5C02D150EA6B
:102FE000013C0AD14FEA430C7FEA6C5C02D152EA01
:102FF000033C02D14FF0000070474FF001007047D2
:103000004FEA410212F5001215D211D56FF4787310
:10301000B3EB625212D94FEAC12343F0004343EAB3
:10302000505311F0004F23FA02F018BF404270478E
:103030004FF00000704750EA013005D111F0004018
:1030400008BF6FF0004070474FF00000704700BFAE
:1030500053B94AB9002908BF00281CBF4FF0FF31FF
:103060004FF0FF3000F088B9ADF1080C6DE904CEE7
:1030700000F006F8DDF804E0DDE9022304B0704753
:103080002DE9F047089D8E4604468846002B4AD11C
:103090008A42174662D9B2FA82F64EB1C6F12003CF
:1030A00001FA06F820FA03F3B74043EA0808B440EF
:1030B0004FEA174E1FFA87FCB8FBFEF1230C0EFBFC
:1030C000118843EA084301FB0CF29A4209D9FB1824
:1030D00001F1FF3080F0EA809A4240F2E780023945
:1030E0003B449A1AA3B2B2FBFEF00EFB102243EA55
:1030F000024300FB0CFC9C4509D9FB1800F1FF3290
:1031000080F0D6809C4540F2D3803B44023840EAB0
:103110000140A3EB0C0300211DB1F3400022C5E9DF
:103120000032BDE8F0878B4205D90DB1C5E9000139
:1031300000210846F5E7B3FA83F1002946D173452B
:1031400002D3824200F20581841A6EEB0302012051
:103150009046002DE5D0C5E90048E2E7002A00F0DE
:103160009080B2FA82F6002E40F0A4808A1A030CF6
:103170004FEA174E80B2BCB20121B2FBFEFC0EFB3F
:103180001C2243EA024304FB0CF29A4207D9FB18C3
:103190000CF1FF3802D29A4200F2E080C4469B1A3A
:1031A000B3FBFEF20EFB123340EA034302FB04F4CE
:1031B0009C4207D9FB1802F1FF3002D29C4200F278
:1031C000CA8002461B1B42EA0C40A5E7C1F120065B
:1031D0008B4022FA06F71F430EFA01F420FA06F399
:1031E0002EFA06FE4FEA1749234300FA01F81FFAA8
:1031F00087FCBEFBF9F01C0C09FB10EE44EA0E4400
:1032000000FB0CFEA64502FA01F209D93C1900F1B7
:10321000FF3A80F09C80A64540F2998002383C44F9
:10322000A4EB0E041FFA83FEB4FBF9F309FB13446D
:103230004EEA044403FB0CFCA44508D93C1903F1F5
:10324000FF3E80F08280A4457FD9023B3C4443EAA4
:103250000040A4EB0C04A0FB02EC64457346E1467D
:1032600062D35FD05DB1B8EB030264EB090404FAEA
:1032700006F622FA01F31E43CC40C5E900640021A2
:103280004FE7B1FBF2FC010C41EA0E4180B240EA8B
:1032900001423B4638463C46B846BE462026B1FB76
:1032A000F7F1A2EB080241EA0C4166E7014618E794
:1032B00010462CE7C6F120022EFA02F3B740B140C7
:1032C00020FA02F24FEA174E0A43B3FBFEF8BCB2F3
:1032D0000EFB1833110C41EA034108FB04F9B0401E
:1032E00089454FEA104380B23ED9791808F1FF3C76
:1032F00001D289451FD8A1EB0901B1FBFEF909FBF9
:1033000004F80EFB191192B242EA0142424529D259
:10331000BA1809F1FF31C4D24245C2D2A9F1020163
:103320003A44BEE7F0459DD2BEEB02036CEB070CBE
:103330000138E14696E7A7EB09094944A8F1020CD8
:10334000B1FBFEF909FB04F8DBE773467FE7504663
:1033500066E70846FDE63B44023A33E7ACF1020C6F
:103360003B441CE749469CE7A1EB0901C446B1FB7D
:10337000FEF909FB04F8C4E7704700BF0D48854615
:10338000AFF300800C480D490D4A002302E0D458E9
:10339000C4500433C4188C42F9D30A4A0A4C00239F
:1033A00001E013600432A242FBD300F09DF9FCF768
:1033B0005BFFFEE70000022000040020D80A002086
:1033C000E8900008D80A0020900F0020FEE70000D7
:1033D000002310B50446C0E90033C0E9043383601C
:1033E00081814366C2818361194608225C3000F006
:1033F00016F90D4B23620D4B63620D4BA3620D4B0F
:10340000E3620D4BE4619C4206D003F168029442F2
:1034100002D0D0339C4205D104F15800BDE81040E1
:1034200000F086B910BD00BF99350008BB35000813
:10343000F335000817360008800C0020024A0349C3
:10344000034800F069B800BF080400201B520008C0
:103450001804002041680C4B994210B5044601D075
:1034600001F0DBFEA168094B994202D0204601F031
:10347000D4FEE168064B994204D02046BDE81040D6
:1034800001F0CBBE10BD00BF800C0020E80C002076
:10349000500D002010B50B4B0B4C0C4A1A60204607
:1034A00000220421FFF794FF04F1680001220921A2
:1034B000FFF78EFF04F1D0000222BDE81040122178
:1034C000FFF786BFB80D0020800C00203D340008B7
:1034D000014800F02FB900BFC20D0020014800F0E4
:1034E0002AB900BFC20D002010B50446FFF7F0FF57
:1034F000636B1BB1BDE81040FFF7F0BF044B636383
:10350000044B1B68002BF5D1FFF7C4FFF2E700BFA7
:1035100055340008B80D00202DE9F84307468846C9
:1035200014460026D4E90195B9F1010905D52468AE
:10353000002CF7D13046BDE8F883AB89012B07D9C1
:10354000B5F90E30013303D029463846C04706434B
:103550006835E9E70EB410B59DB01FAB0290069038
:103560006FF000410A48079104910A4953F8042B6F
:103570000591002402A9006801931B9400F048FC07
:10358000029B1C701DB0BDE8104003B0704700BF27
:10359000140400200802FFFF10B50C46B1F90E100C
:1035A00000F07EF80028ABBF236DA3891B1823F41D
:1035B0008053ACBF2365A38110BD2DE9F0411F46A8
:1035C0008B89DB0505460C46164605D5B1F90E106C
:1035D0000223002200F052F8A389B4F90E1023F45C
:1035E0008053A38132463B462846BDE8F04100F0B7
:1035F00069B810B50C46B1F90E1000F03FF8431C45
:10360000A38915BF206523F4805343F48053A3811D
:1036100018BFA38110BDB1F90E1000F01FB802440D
:103620000346934200D1704703F8011BF9E70A787B
:1036300070B56AB970BD9A4209D10C46054614F8B6
:10364000013F002BF6D015F8016F9E42F7D00130F4
:103650000378002BEFD11846ECE7000038B5064D93
:103660000023044608462B6004F000FB431C02D1F3
:103670002B6803B1236038BDBC0D002038B5074D61
:1036800004460846114600222A601A4604F016FB3A
:10369000431C02D12B6803B1236038BDBC0D002050
:1036A00038B5074D04460846114600222A601A46DE
:1036B00004F00CFB431C02D12B6803B1236038BD1E
:1036C000BC0D002038B5074D0446084611460022BF
:1036D0002A601A4604F010FB431C02D12B6803B188
:1036E000236038BDBC0D002070B50D4D0D4C641B22
:1036F000A4100026A64209D10B4D0C4C05F004F98C
:10370000641BA4100026A64205D170BD55F8043BE9
:1037100098470136EEE755F8043B98470136F2E743
:10372000DC900008DC900008DC900008E4900008C1
:103730007047704770477047024B13B1024800F062
:1037400005B87047000000006954000800230146D6
:103750001A46184601F0DABE2DE9F843064608205D
:10376000894601F095FE244F8046304600F044FB28
:10377000BB685D6825F00305A5F11104A4EB0904FD
:103780004444B4FBF8F4013C08FB04F4A04505DD17
:10379000304600F037FB0020BDE8F88300213046BA
:1037A00001F052FEBB682B449842F1D16142304691
:1037B00001F04AFE013010D10021304601F044FEF4
:1037C000BA68831A0F2BE3DD0C490968401A0C49CB
:1037D00043F0010308605360DAE7BB68084A2D1B19
:1037E00045F001055D60136830461B1B136000F057
:1037F00009FB0120D0E700BF640500205C05002024
:10380000C80D0020F8B504460F46002900F0B1802D
:1038100000F0F2FA57F8042C564D22F00100A7F1FF
:10382000080303EB000CA968DCF80460614526F08E
:10383000030602F001021BD106443AB957F8082CDE
:103840009B1A1644D3E90212CA60916046F0010245
:103850005A60AB60484B1B68B34204D8474B2046C4
:103860001968FFF779FF2046BDE8F84000F0CABAB2
:10387000CCF80460002A38D157F8081C5B1A0844B9
:10388000996805F10807B94231D0DF68CF60B960A7
:103890000CEB06014968C9070BD4DCF8081030446A
:1038A0003ABB374EB14224D1C5E90433C3E9021112
:1038B000012240F0010159601850002AD3D1B0F51F
:1038C000007F1BD2C2080121400981406868013293
:1038D0000143696055F8320005EBC2010839C3E9BC
:1038E000020145F83230C360BDE70022D0E7012273
:1038F000CEE7DCF80C60CE60B160DAE7B0F5206F9F
:103900004FEA502214D282093832511C05EBC2060C
:1039100055F831108E4225D10120921000FA02F2A2
:10392000686802436A60C3E90216B360CB609AE735
:10393000142A01D85B32E8E7542A02D8020B6E320F
:10394000E3E7B2F5AA7F02D8C20B7732DDE740F297
:1039500054518A429ABF820C7C327E22D5E7896814
:103960008E4204D04A6822F003028242F7D8CE6821
:10397000D9E7F8BD6405002060050020F80D00209F
:103980006C05002001F10B03162B2DE9F74F0546BE
:1039900006D933F0070704D50C232B600024A1E1DE
:1039A0001027B942F8D8284600F026FAB7F5FC7F70
:1039B000AE4E37D207F108023244A2F10801546832
:1039C0008C424FEAD70302D1D468A24210D0636878
:1039D000D4E9021223F00303CA60234491605A68B9
:1039E00042F001025A60284600F00CFA083479E1EE
:1039F000023334699E498C4277D0626822F0030C0E
:103A0000ACEB07000F2848DDE21940F0010347F056
:103A100001076760C6E90422C2E90211536044F855
:103A20000C00E0E77B0A2AD0042B12D8BB093833FC
:103A30005A1C06EBC202A2F1080C5468644506D079
:103A4000626822F00302D01B0F281CDD013B01330A
:103A5000CFE7142B01D85B33EAE7542B02D83B0B9A
:103A60006E33E5E7B3F5AA7F02D8FB0B7733DFE7C8
:103A700040F25452934204D8BB0C7C33D8E73F2326
:103A8000D6E77E23D4E70028E16804DBA368D96089
:103A90008B60A318A3E70C46D0E70028C6E9041101
:103AA00007DBA444DCF8043043F00103CCF8043015
:103AB00099E7BCF5007F706880F093804FEADC02E4
:103AC0004FEA5C1E4FF0010C01320CFA0EFC4CEA7E
:103AD0000000706056F832C006EBC2000838C4E936
:103AE00002C046F83240CCF80C40981001228240C7
:103AF0007068904226D3104206D123F0030352008F
:103B0000104203F10403FAD006EBC308C1469E46F7
:103B1000D9F80C404C4540F0B7800EF1010E1EF074
:103B2000030F09F10809F3D1980740F0E1807368A9
:103B300023EA0203736070685200904202D3002AA5
:103B400040F0E380D6F808A0DAF8043023F0030947
:103B5000B94504D3A9EB07020F2A00F34181454B75
:103B60001968103139440820019101F091FC424A52
:103B70000199136801331FBF01F1FF310918434256
:103B8000194080462846019101F05EFC421C0AEB78
:103B9000090B044600F0F78083450199364A02D9A3
:103BA000B24540F0F080354B1868A34508441860D2
:103BB00008F1FF3C40F0AB801BEA0C0F40F0A780FF
:103BC000B268494441F0010151602D4A1B681168F7
:103BD0008B4288BF13602B4A11688B4288BF1360E9
:103BE000D1E0BCF5206F4FEA5C2218D24FEA9C125C
:103BF000383202F1010E06EBC20856F83EE0F045FD
:103C00002BD192104FF0010C0CFA02F202437260B9
:103C1000C4E902E8C8F80840CEF80C4065E7142A69
:103C200001D85B32E5E7542A03D84FEA1C326E32E2
:103C3000DFE7B2F5AA7F03D84FEADC327732D8E764
:103C400040F2545E72459ABF4FEA9C427C327E221B
:103C5000CFE7DEF808E0F04505D0DEF8042022F0DA
:103C600003026245F5D8DEF80C80D1E76405002038
:103C70006C050020F80D00205C050020C80D002018
:103C8000F40D0020F00D00206068D4F80CC020F086
:103C90000300A0EB070ABAF10F0F12DDA368E219C7
:103CA00047F001076760C3F80CC0CCF808304AF051
:103CB0000103C6E90422C2E90211536044F800A0DE
:103CC00091E6BAF1000F11DB2044436843F0010391
:103CD000436054F8083F2846C3F80CC0CCF80830BD
:103CE00000F090F8204603B0BDE8F08F644611E77D
:103CF00058F80809404503F1FF333FF415AF1AE7C0
:103D0000043352001042FBD0FEE67346FAE7D2F8C5
:103D100000E0BEF1FF3F1BBFA4EB0B0B0BEB00025F
:103D200014601A6014F0070B1ABFCBF108002418B6
:103D30005846621802EA0C018044A8EB010808EA20
:103D40000C0841462846019201F07EFB431C019A73
:103D5000284B07D1BBF1000F23D0ABF10800104472
:103D60004FF000081A68B460001B4044424440F021
:103D70000100B2451A6060603FF427AFB9F10F0F40
:103D800012D801236360B3685B6823F00303BB426E
:103D9000A3EB070201D30F2A22DC284600F032F8F9
:103DA000FCE51046D846DDE7DAF80420A9F10C0955
:103DB00029F0070902F0010242EA0902CAF80420C8
:103DC00005210AEB0902B9F10F0FC2E901117FF6D3
:103DD000FCAE0AF108012846FFF714FD054BF4E696
:103DE000B46847F00103274442F001026360B76002
:103DF0007A60F8E5C80D00200148FFF79BBC00BFC2
:103E0000C00D00200148FFF796BC00BFC00D002088
:103E10002DE9F04FD7B093460A911F46079001F065
:103E20000FFB036819931846FEF7DCFD0A9B1290FE
:103E30009B891A0614D50A9B1B698BB907984021E8
:103E4000FFF7A0FD0A9B1860186130B9079A0C2390
:103E500013604FF0FF331493F2E10A9A4023536149
:103E60000023CDE92B33089300220023CDE9102352
:103E70002DAC00232A941E931B930E9318931A9330
:103E800014935B461D4613F8012B0AB1252AF9D17C
:103E9000B5EB0B060DD02C9B33442C932B9B01339D
:103EA000072BC4E900B62B9375DC0834149B33440C
:103EB00014932B78002B01F0478100226B1C8DF8A6
:103EC0008B204FF0FF361392154613F8012B0B92FF
:103ED0000F930B9B203B5A2B00F29F85DFE813F0DA
:103EE0009E009D059D05A6009D059D059D058600DE
:103EF0009D059D05A900B3009D05B000B5009D0579
:103F0000D000D300D300D300D300D300D300D3001C
:103F1000D300D3009D059D059D059D059D059D052F
:103F20009D0544019D05030115014401440144011F
:103F30009D059D059D059D05E6009D059D05960435
:103F40009D059D059D05E0049D05FF049D059D05BE
:103F500022059D059D059D059D059D059D059D05CC
:103F60009D0544019D0503011701440144014401DD
:103F7000E9001701FD009D05F6009D0577049804F2
:103F8000CE04FD009D05E0049C0001059D059D05F6
:103F900065009D059C000A9907982AAA01F016F968
:103FA000002840F048812DAC80E7A84B1E9315F007
:103FB000200300F0BA84073727F007031A46D3F826
:103FC000048052F8087B0C92E8070AD557EA0803E8
:103FD00007D030238DF88C300B9B8DF88D3045F059
:103FE000020525F48065022300F021BC079801F04A
:103FF00027FA43681A931846FEF7F4FC18900798BE
:1040000001F01EFA83680E93189B2BB10E9B1BB117
:104010001B780BB145F480650F9B56E79DF88B30FC
:10402000002BF9D120238DF88B30F5E745F0010501
:10403000F2E757F8043B1393002BEDDA5B4213933E
:1040400045F00405E8E72B23EDE70F9B13F8012B60
:104050000B922A2A11D157F8046B0F9346EAE676A1
:10406000DAE701FB062613F8012B0B920B9A303A84
:10407000092AF6D946EAE6762AE700260A21F5E774
:1040800045F08005C8E7002313930A220B9B139980
:10409000303B02FB013313930F9B13F8011B0F936B
:1040A000A1F13003092B0B91F0D912E745F0080577
:1040B000B2E70F9B1B78682B01BF0F9B01330F9357
:1040C00045F4007518BF45F04005A5E70F9B1B7828
:1040D0006C2B05D10F9B01330F9345F020059BE717
:1040E00045F0100598E73A4652F8043B8DF8F43055
:1040F00000230C928DF88B309A46012699469846FB
:104100000D931F460DF1F40BB7E145F01005AB061A
:1041100014D5073727F007031A46D3F8048052F85E
:10412000087B0C92B8F1000F06DA7F424FF02D03A6
:1041300068EB48088DF88B3001237BE33A46EF06A5
:1041400052F8043B0C9203D51F464FEAE378E9E7A7
:10415000680603D51FB243F3C038E3E7A905F3D5DA
:104160005FB243F3C018DDE7073727F007031946AE
:10417000F1E80223CDE91023109B1C93119B0C91B5
:1041800023F000431D93DDE91C01314B4FF0FF325A
:10419000FEF720FF00BBDDE91C012D4B4FF0FF3285
:1041A000FEF7FAFEC0B9DDE9100100220023FEF798
:1041B000E9FE10B12D238DF88B30264A264B0B9942
:1041C00025F080054729CCBF93469B464FF0000A57
:1041D0000326D14600F0EFBFDDE910231046194653
:1041E000FEF7F8FE824640B1119B1C4A002BBCBF73
:1041F0002D238DF88B301A4BE1E70B9B612B23D0DD
:10420000412B2FD158233022632E8DF88C208DF82E
:104210008D3045F0020540F38C800798711CFFF744
:10422000B1FB8346002840F089800A9B0A9A9B894B
:1042300043F0400393810A9B9B895B063FF509AEDF
:10424000149857B0BDE8F08F7823DCE78489000824
:10425000FFFFEF7F788900087489000880890008D3
:104260007C890008721C6BD00B9B23F02003472B2A
:1042700001D1002E66D045F480731593119B002B5D
:1042800063DA109B1693119B03F1004317932D23C0
:104290001F930B9B23F02008B8F1410F40F0D18110
:1042A00024AADDE9160101F0FFF800224FF07F5348
:1042B000FEF7F6FB02460B46CDE908230022002359
:1042C000FEF756FE08B101232493244A244B0B9990
:1042D000612908BF1A460D92013E5F46214B00221C
:1042E000DDE90801FEF7DCFB80468946CDE9088957
:1042F000FEF786FE8046FEF711F802460B46DDE922
:104300000801FDF7BDFE0B460246CDE908230D9BD3
:1043100013F8083007F8013B731C25D00022002356
:1043200006F1FF38FEF724FEA8B13B46B91930204C
:104330007EE14FF0000A0DF1F40B9CE782469AE70C
:10434000062698E7B246012695E7DDE91023CDE978
:10435000162300239CE74646C0E700BF9589000866
:104360008489000800003040AD4B0022FEF728FE93
:1043700050B9DDE90801AA4B0022FEF7F9FD00283B
:10438000D3D018F0010FD0D00D9B2897D97B3020C7
:10439000289A531E289312F8013C8B4200F03C816E
:1043A000392B0BBF0D9B01339B7ADBB202F8013C2A
:1043B000A7EB0B0308930B999DF82C20249821F070
:1043C0002001412908BF0F3200F1FF3306BFD2B2EE
:1043D00001210021002B2493B8BFC0F101038DF807
:1043E0009820B4BF2D222B22092B8DF8992040F361
:1043F00097810DF1A7000A270246B3FBF7F607FBEA
:104400001631303102F8011C1946632900F1FF30E2
:104410003346F1DC3033911E00F8013C0DF1990672
:104420000B460DF1A7008342C0F075810DF1A90381
:104430009B1A814288BF00230DF19A021A4426ABD1
:10444000D31A1B93089B1B9A012B03EB020601DC7A
:10445000E80701D5129B1E4425F480654FF0000843
:1044600045F480731593CDF8348047461F9B002B8D
:1044700040F0A981159D4FF00009B1454B46B8BFEA
:10448000334615939DF88B3013B1159B013315936B
:1044900015F002031F931EBF159B0233159315F0F1
:1044A0008403209321D1139B159A9B1A002B1CDDAA
:1044B000DDE92B21DFF86CC1C4F800C0102B02F13C
:1044C000010204F1080000F3B4821944072ACDE97F
:1044D0002B21636040F3C4820A9907982AAA00F04E
:1044E00075FE002840F00E862DAC9DF88B202C9B8D
:1044F0006AB10DF18B022260012213442C932B9B95
:1045000062601344072B2B9300F3AC8208341F9A8C
:104510002C9B62B123AA2260022213442C932B9B72
:1045200062600133072B2B9300F3A6820834209B93
:10453000802B21D1139B159A9B1A002B1CDDDDE9E2
:104540002B21DFF8E4C0C4F800C0102B02F10102F7
:1045500004F1080000F39A821944072ACDE92B21BF
:10456000636040F3AA820A9907982AAA00F02EFEF7
:10457000002840F0C7852DACA9EB0609B9F1000F62
:104580001CDDDDE92B2328482060B9F1100F02F172
:10459000010204F1080100F392824B44072ACDE99D
:1045A0002B23C4F8049040F39E820A9907982AAA04
:1045B00000F00CFE002840F0A5852DACEB05DDF8E1
:1045C000B09000F197822B9B0133C4E900B6072B12
:1045D0004E442C962B9300F3D28208346A0700F1E4
:1045E0007385DDE9132315998A42ACBF9B185B18CC
:1045F00014932C9B3BB10A9907982AAA00F0E6FD78
:10460000002840F07F8500232B93BAF1000F40F083
:1046100095850C9F2DACE3E002F8010CB8E600BFD5
:104620000000E03FCD8A0008BD8A000803F8010BB6
:10463000CA1A002AFADA731C0136B8BF00231F44D5
:10464000B6E6B8F1460F05D0B8F1450F31D1771C69
:10465000022301E03746032328AA049225AA0392E5
:1046600024AACDE9017200930798DDE9162301F031
:1046700017F8B8F1470F834630D1EA071BD4289BBF
:10468000249FA3EB0B03B8F1470F08933BD0B8F17D
:10469000460F7FF490AE05F00103002F43EA0603B6
:1046A00058DD002B60D0129BFB181E4466230B9331
:1046B0005FE03746CCE700EB0709DDE91601002291
:1046C0000023FEF755FC08B1CDF8A0903022289BBE
:1046D0009945D4D9591C28911A70F8E7B8F1460FBA
:1046E00000EB0709E9D10378302B09D1DDE9160188
:1046F00000220023FEF73CFC10B9C7F10107249704
:10470000249B9944D9E7FB1C01DBBE4215DA0B9BC5
:10471000023B0B934FE613F8017B06F8017F82E61C
:1047200041B930228DF89A200DF19B02303302F806
:10473000013B84E60DF19A02F8E7089BBB420DDDD0
:10474000089B129A002F03EB02060BDCC7F1010352
:104750001E4407E053B1129B0133A6E7E9071DD5BC
:10476000129BFE186723A2E73E469FE766230B9342
:10477000012615F480630D9322D04FF00008002F1E
:10478000CDF834807FF772AE0E9B1B78FF2B07D1DC
:104790000D9B189A434402FB036667E63E46E1E739
:1047A000BB42F5DAFF1A0E9B5B7833B10D9B0133E8
:1047B0000D930E9B01330E93E6E708F10108E3E742
:1047C000DDF8348052E62D238DF88B3052E6AA06B0
:1047D0000AD5149A3B681499D217C3E9001204371A
:1047E000DDF83CB0FFF74DBBEB0603D53B68149AF0
:1047F0001A60F4E76E0603D53B68149A1A80EEE758
:10480000AD05F3D53B68149A1A70E8E745F010053A
:1048100015F020031FD0073727F007031A46D3F8F7
:10482000048052F8087B0C9225F480650023002256
:104830008DF88B20002EC0F2928425F080020D921C
:1048400057EA080240F09084002E00F0DE80012B31
:1048500040F08D8483E03A4615F0100852F8047B4E
:104860000C9201D09846DFE715F0400301D0BFB2AB
:10487000DAE715F40078D7D0FFB2F3E73B467822A9
:1048800053F8047B0C9347F63003ADF88C30974B0C
:104890001E934FF0000845F0020502230B92C6E775
:1048A0003B46002753F804BB0C93BE428DF88B7037
:1048B0000FDB324639465846FEF7A2F882460028FA
:1048C0003FF487ACA0EB0B06BA46B946B8460D9745
:1048D000D3E55846FEF786F8BA46064679E445F031
:1048E000100515F020030AD0073727F007031A46F2
:1048F000D3F8048052F8087B0C92012397E73A46DC
:1049000015F0100852F8047B0C9201D09846F4E799
:1049100015F0400301D0BFB2EFE715F40078ECD0FA
:10492000FFB2F3E7724BFFF741BB3A4615F01008B0
:1049300052F8047B0C9202D09846FFF745BB15F065
:10494000400302D0BFB2FFF73FBB15F400783FF43D
:104950003BABFFB2F0E70A2F78F1000307D2303704
:10496000FFB28DF857710DF2571B00F01DBC0023EC
:1049700008930D9B03F4806356AD15930A22002320
:1049800038464146FEF764FB089B01330893159BAC
:1049900030328246894605F1FF3B05F8012C03B30E
:1049A0000E9B1A78089B93421BD1FF2B19D00A2F1C
:1049B00078F10008C0F0F883189B1A99ABEB030B51
:1049C0001A46584600F029FD0E9B5A783AB1013339
:1049D0000E93002308935746C8465D46CEE70892DB
:1049E000F9E70A2F78F10008F5D2DDE307F00F03AD
:1049F0001E9A3F09D35C0BF8013D47EA08774FEA5E
:104A0000181857EA0803F1D1CEE31BB9EA0701D51C
:104A10003027A6E70DF5AC7BC6E30B9B002B00F01F
:104A200093838DF8F43000238DF88B300C97FFF7CB
:104A300063BB4FF0100C6144072ACDE92B21C4F869
:104A400004C00ADD0A99079821932AAA00F0BEFB48
:104A5000002840F05783219B2DA8103B044627E5F2
:104A6000044642E50A9907982AAA00F0AFFB0028FD
:104A700040F048832DAC4AE50A9907982AAA00F02D
:104A8000A5FB002840F03E832DAC50E54FF0100C04
:104A90006144072ACDE92B21C4F804C00ADD0A9934
:104AA00007981F932AAA00F091FB002840F02A8360
:104AB0001F9B2DA8103B044641E504465CE51020F1
:104AC0000344072ACDE92B23606008DD0A99079883
:104AD0002AAA00F07BFB002840F014832DA9A9F13D
:104AE00010090C464DE50C4668E500BF84890008B6
:104AF000958900080B9B652B40F34882DDE9100186
:104B000000220023FEF734FA002869D0724B23609C
:104B1000012363604B442C932B9B0133072B2B9376
:104B200037DC0834249B089A934202DBEF077FF5B9
:104B300055AD199B2360129B129A63602C9B134402
:104B40002C932B9B0133072B2B932CDC0834089BD5
:104B50005E1E002E7FF742AD604F4FF01008DDE97A
:104B60002B32102E03F1010304F10801276024DC2D
:104B70006660072B1644CDE92B3640F3A2820A99D2
:104B800007982AAA00F022FB002840F0BB822DAC37
:104B900024E50A9907982AAA00F018FB002840F09B
:104BA000B1822DACBEE70A9907982AAA00F00EFB45
:104BB000002840F0A7822DACC9E71032072BCDE9C1
:104BC0002B32C4F8048008DD0A9907982AAA00F05D
:104BD000FDFA002840F096822DA9103E0C46BEE753
:104BE000249B002B7CDC3C4B2360012363604B4403
:104BF0002C932B9B0133072B2B9346DC083408990D
:104C0000249B2C9A0B4305F001010B433FF4E6ACC7
:104C1000199B2360129B63601A442B9B2C920133D7
:104C2000072B2B933BDC04F10803249E002E1BDA98
:104C30002A4F76421A461024DDE92B10102E01F17E
:104C4000010103F10803176033DC566007290644AD
:104C5000CDE92B1608DD0A9907982AAA00F0B6FAC2
:104C6000002840F04F822DAB089A08995A602C9A80
:104C7000C3F800B00A442C922B9A0132072A2B92D7
:104C80003FF77DAF03F10804A8E40A9907982AAA20
:104C900000F09CFA002840F035822DACAFE70A996D
:104CA00007982AAA00F092FA002840F02B822DAB38
:104CB000BBE710300729CDE92B10546008DD0A99B5
:104CC00007982AAA00F082FA002840F01B822DAB38
:104CD000103E1A46B0E700BFA6890008BD8A00084A
:104CE000089BBB42A8BF3B46002B1E460ADDC4E919
:104CF00000B34B442C932B9B0133072B2B9300F3D6
:104D00008E800834002EACBFBE1B3E46002E1CDD3C
:104D1000DFF87492C4F80090DDE92B32102E03F115
:104D2000010304F1080100F384806660072B164438
:104D3000CDE92B3640F390800A9907982AAA00F013
:104D400045FA002840F0DE812DAC6E055F440CD59D
:104D50000D9B002B00F38280B8F1000F00F38180DF
:104D6000089B5B449F4228BF1F46249B089A93429E
:104D700001DBE8070ED5199B2360129B129A636032
:104D80002C9B13442C932B9B0133072B2B9300F369
:104D9000E6800834249B089AA2EB03080BEB02037D
:104DA000DB1B9845A8BF9846B8F1000F2C9B0ADD85
:104DB00043442C932B9B0133072BC4E900782B939E
:104DC00000F3D7800834249E089BB8F1000FA3EBB2
:104DD0000606A8BFA6EB0806002E7FF7FFAB6A4FBA
:104DE0004FF01008DDE92B32102E03F1010304F11E
:104DF000080127607FF7BCAE1032072BCDE92B32BC
:104E0000C4F8048008DD0A9907982AAA00F0DEF9A0
:104E1000002840F077812DA9103E0C46E2E70A9960
:104E200007982AAA00F0D2F9002840F06B812DAC37
:104E300068E710200244072BCDE92B32606008DDC3
:104E40000A9907982AAA00F0C1F9002840F05A816F
:104E50002DA9103E0C465DE70C4676E7B8F1000F31
:104E60004DDD08F1FF381A9B2360189B189A636088
:104E70002C9B13442C932B9B0133072B2B9345DC4A
:104E80000834089B0BEB03090E9B1B78A9EB070961
:104E90009945A8BF9946B9F1000F2C9B09DD4B44F9
:104EA0002C932B9B0133072BC4E900792B9337DC20
:104EB00008340E9B1E78B9F1000FA8BFA6EB0906B7
:104EC000002E18DDDDE92B322F482060102E03F173
:104ED000010304F108012DDC6660072B1644CDE9BF
:104EE0002B363ADD0A9907982AAA00F06FF90028B4
:104EF00040F008812DAC0E9B1B781F4428E70E9BC9
:104F0000013B0E930D9B013B0D93ACE70A9907986B
:104F10002AAA00F05BF9002840F0F4802DACB0E73D
:104F20000A9907982AAA00F051F9002840F0EA806F
:104F30002DACBEE710200244072BCDE92B32606078
:104F400008DD0A9907982AAA00F040F9002840F0E5
:104F5000D9802DA9103E0C46B4E70C46CBE70A9940
:104F600007982AAA00F032F9002840F0CB802DAC37
:104F700010E70A9907982AAA00F028F9002840F0BB
:104F8000C1802DAC1FE700BFBD8A000808992B9A8D
:104F9000012909F1010302F1010204F1080602DC12
:104FA000E90740F183800121072ACDE92B23C4F8CA
:104FB00000B0616008DD0A9907982AAA00F006F996
:104FC000002840F09F802DAE199B3360129B129AEF
:104FD00073602C9B13442C932B9B0133072B2B9337
:104FE00033DC0836089BDDE910015C1E002200233B
:104FF000DDE92B87FDF7BCFF00282FD10BF1010263
:10500000C6E90024089A08F10103013F1744072B61
:10501000CDE92B3753DD0A9907982AAA00F0D6F874
:1050200000286FD12DAE26AB33601B9B1B9A73609B
:105030002C9B13442C932B9B0133072B2B933FF773
:105040009EAD06F10804FFF7C9BA0A9907982AAA83
:1050500000F0BCF8002855D12DAEC3E7089B012B0A
:10506000E1DD584F4FF01008DDE92B32102C03F131
:10507000010306F10801376007DC7460072B144454
:10508000CDE92B34C7DC0E46CDE71032072BCDE936
:105090002B32C6F8048006DD0A9907982AAA00F088
:1050A00095F878BB2DA9103C0E46DDE70121072AB3
:1050B000CDE92B23C4F800B06160B4DDABE708365E
:1050C000B1E70C46FFF78ABA139B159A9D1A002D7B
:1050D0007FF787AA3C4E1027DDE92B32102D03F114
:1050E0000103266018DC6560072B1544CDE92B35DC
:1050F0007FF777AA0A9907982AAA00F067F800288C
:105100003FF46FAABAF1000F3FF495A807985146F3
:10511000FEF778FBFFF78FB81032072BCDE92B3263
:10512000676002DC0834103DD6E70A9907982AAA7E
:1051300000F04CF80028E5D12DACF4E70798514673
:10514000FEF760FBFFF765BA2C9B002B3FF473A8BA
:105150000A9907982AAA00F039F8FFF76CB857EABD
:1051600008020D953FF473AB012B3FF4F4AB022B17
:105170000DF5AC7B3FF43AAC07F00703FF0847EAB4
:1051800048774FEAD808303357EA08015A460BF8F7
:10519000013DF1D10D99C90706D5302B04D030233C
:1051A0000BF8013CA2F1020B56AB0D9DB1464FF03E
:1051B000000AA3EB0B06D046CDF834A05746FFF704
:1051C0005CB900BFBD8A0008CD8A00082DE9F04116
:1051D000156806460F461446A36808352BB900200B
:1051E0000023C4E90133BDE8F08163685A1E002B37
:1051F0006260F4DD55F8048CB8F1000FECD0434642
:1052000055F8082C3946304601F02AFB431CE7D0FC
:10521000A268A2EB0802A260DEE770B505460C4664
:10522000B9B118B1436B0BB9FEF75EF9626EB4F910
:105230000C30D60704D498050ED4A06DFEF77AFA88
:10524000B4F90C3043B9636ED90702D4A06DFEF7F0
:1052500072FA0026304670BD2146284600F034F828
:10526000E36A064633B1E169284698470028B8BF8B
:105270004FF0FF36A3891A0603D521692846FEF7A9
:10528000C1FA216B41B104F14003994202D0284692
:10529000FEF7B8FA00232363616C21B12846FEF7BC
:1052A000B1FA00236364FEF713F90023A381636E50
:1052B000DB0702D4A06DFEF73EFAA06DFEF739FAC7
:1052C000FEF70CF9C6E70000F8B50546B1F90C0089
:1052D00006070C4657D440F400638B814B68002BC3
:1052E00002DCCB6B002B4CDDA66A002E49D00023DC
:1052F00010F480522F68E1692B6034D0226DA389AD
:10530000590705D56368D21A236B0BB1E36BD21A28
:105310000023A66AE1692846B047431C06D12A68E3
:105320001D2A47D8294BD340DE0743D5B4F90C30AA
:1053300023F40062A28100226260D9042269226003
:1053400004D5421C01D12B6803B92065216B2F6065
:10535000B9B104F14003994202D02846FEF752FA4F
:10536000002323630DE001232846B0470246501C6A
:10537000C5D12B68002BC2D01D2B01D0162B19D103
:105380002F6000201DE00F69002FFAD083070E6800
:1053900008BF4B690F6018BF0023F61B8B60002EFF
:1053A000EFDDE169D4F824C033463A462846E047A9
:1053B000002807DCB4F90C3043F04003A3814FF020
:1053C000FF30F8BD0744361AE9E700BF010040206E
:1053D00038B50C46054618B1436B0BB9FEF784F897
:1053E000B4F90C00B8B1636EDB0704D4810502D4B4
:1053F000A06DFEF79FF928462146FFF765FF636E13
:10540000DA07054605D4A3899B0502D4A06DFEF7F3
:1054100092F9284638BD0546FBE710B50139034629
:1054200032B111F8014F03F8014B013A002CF7D1CA
:105430001A440021934200D110BD03F8011BF9E783
:10544000004870475C0A002038B5064D002304462A
:1054500008462B6002F042FC431C02D12B6803B1CA
:10546000236038BDBC0D002038B5074D074C641BC8
:10547000A4101CB9BDE8384003F04CBA013C55F803
:1054800024309847F5E700BFE4900008E890000852
:10549000082808B506D001F059FA162303604FF02A
:1054A000FF3008BD8020FCE7F8B5174600223A60BF
:1054B000134A21F00043934204460D460E461CD881
:1054C00002461A4319D00F4A0A4052B90E4B002225
:1054D000FDF7E6FA6FF0350204460E4621F0004370
:1054E0003A603A681B15A3F2FE336FF31E561A4456
:1054F00046F07F553A6045F4001520462946F8BD30
:10550000FFFFEF7F0000F07F000050432DE9F047E0
:10551000DFF86CA00646DAF8000098460F46914680
:10552000FEF708F9174B1C680CB9174C1C6065682E
:10553000DAF800001F2D05DDFEF7FDF84FF0FF3013
:10554000BDE8F0879EB104EB85010122C1F8889087
:10555000D4F88831AA401343C4F88831022EC1F828
:10556000088102BFD4F88C311343C4F88C316B1C12
:105570000235636044F82570FEF7DDF80020DFE7B0
:1055800058050020C40D0020FC0D00202DE9F74F28
:1055900003690C69A34207467EDB013C01F1140854
:1055A000A30000F11405009305EB8403019358F860
:1055B000243055F8242001339A4208EB8409B2FBC9
:1055C000F3F62ED34FF0000AC446AE46D3465CF83D
:1055D000043B98B206FB00A0020C1B0C06FB032345
:1055E000DEF8002080B292B2121A5A44DEF80000AF
:1055F0004FEA134A9BB2C3EB224303EB104392B230
:1056000042EA0342E1454EF8042B4FEA234BDED237
:10561000009BEB582BB9019B043B9D421A462FD3AC
:105620003C61384601F016F8002825DB29460020A9
:1056300058F8042BD1F800C01FFA82FE1FFA8CF331
:10564000A3EB0E030344120CC2EB234202EB1C42F9
:105650009BB243EA0243C14541F8043B4FEA224072
:10566000E6D255F8242005EB840322B9043B9D4281
:105670001A460BD33C610136304603B0BDE8F08FCB
:105680001268043B002ACBD1013CC6E71268043BF8
:10569000002AEFD1013CEAE70020EEE7000000001D
:1056A0002DE9F04F816B97B014461D46CDE90645B4
:1056B000239E814649B1C26B4A60012393408B60AF
:1056C00000F0C9FD0023C9F838302B1EB9BF23F004
:1056D0000043079300233360DDF81C809A4BBCBF66
:1056E0000122326033EA080314D1229A42F20F7386
:1056F0001360C8F31303234300F05885249BDFF89D
:105700004CA21BB10AF10303249A1360504617B050
:10571000BDE8F08FDDE90623CDE90C23DDE90C01BE
:1057200000220023FDF724FC074650B1229A0123F2
:105730001360249B13B1249A854B1360DFF814A2E5
:10574000E4E714AB019315AB00934846DDE90C2365
:1057500001F02EF8C8F30A560390002E77D00D9B67
:105760001297C3F31303DDE90C0143F07F5343F4B5
:105770004013A6F2FF3619460022774BFCF780FC57
:105780006BA3D3E90023FDF78BF96BA3D3E90023C7
:10579000FCF778FC044630460D46FCF7BFFD68A3D5
:1057A000D3E90023FDF77CF902460B462046294643
:1057B000FCF768FC04460D46FDF722FC0022074674
:1057C000002320462946FDF7DDFB40B13846FCF7B3
:1057D000A5FD22462B46FDF7CBFB00B9013F162F56
:1057E00053D85E4B03EBC703D3E90023DDE90C017B
:1057F000FDF7C8FB00284AD0013F00230F93149BFC
:105800009B1B5A1E45BFC3F10103049300230023D1
:10581000099254BF04930993002F3ADB099B0E971A
:105820003B44099300230A93209B092B65D8052B41
:10583000C4BF043B2093209BA3F10203CCBF0024F0
:105840000124032B65D8DFE803F05456382CDDE93A
:1058500014631E4406F23243202BC1BFC3F1400340
:1058600008FA03F806F2124324FA03F3D6BFC3F191
:10587000200348EA030004FA03F0FCF73FFD01228D
:10588000A1F1F873013E129275E70123B6E70F907C
:10589000B5E7049BDB1B04937B420A9300230E9322
:1058A000C2E701230B93219B07EB030B0BF10103D1
:1058B000012B0893B8BF012306E001230B93219B22
:1058C000002B29DD9B4608930021042202F11400DD
:1058D000984229D9C9F83C10484600F097FC824606
:1058E000002841D11E4B024640F2AF111D4801F085
:1058F00041F80023E2E70023D4E7012400232093AA
:105900000B944FF0FF3B0022CDF820B012232192E0
:10591000DAE701230B93F4E74FF0010BCDF820B049
:105920005B46CDF884B0CFE701315200CEE700BF2F
:1059300061436F63A787D23FB3C8608B288AC63F95
:10594000FB799F501344D33F0000F07FB1890008DA
:10595000A7890008A68900080000F83F188B0008F6
:10596000B5890008C6890008089BC9F838000E2BC5
:1059700000F2A180002C00F09E80002F33DD9C4BB4
:1059800007F00F0203EBC203D3E90034F805CDE9B9
:1059900010344FEA271416D5964BDDE90C01D3E9F4
:1059A0000823FDF7A7F9CDE9060104F00F0403264B
:1059B000904D54B9DDE91023DDE90601FDF79AF9B0
:1059C000CDE9060128E00226F2E7E10708D5DDE986
:1059D0001001D5E90023FDF763F8CDE91001013688
:1059E00064100835E5E700F0AF807C42804B814DC4
:1059F00004F00F0203EBC203D3E90023DDE90C013D
:105A0000FDF74EF8CDE90601241100230226002CF3
:105A100040F08F80002BD3D10F9BDDE90645002B92
:105A200000F09480744B002220462946FDF7AAFA24
:105A3000002800F08B80089B002B00F08780BBF1D2
:105A4000000F34DD20466D4B00222946FDF728F873
:105A5000CDE9060107F1FF3801365C463046FCF718
:105A60005DFCDDE90623FDF71BF8654B0022FCF722
:105A700009FB0546A1F15076002C6AD1DDE906014B
:105A8000604B0022FCF7FCFA02460B46CDE90623E8
:105A90002A463346FDF794FA002840F09782DDE964
:105AA00006012A4606F10043FDF76CFA38BBDDE932
:105AB0000C34CDE90634159B002BC0F256810E2F15
:105AC00000F353814A4B03EBC703D3E90034CDE91C
:105AD0000434219B002B80F2E480089B002B00F310
